:1000000022C03CC03BC03AC039C038C037C036C03F
:1000100035C034C057C232C031C030C02FC0050017
:1000200057000000C80064007D0090019300A0000C
:1000300000000000000000000009000F00000000A8
:10004000000000006F6C11241FBECFE5D1E0DEBFC1
:10005000CDBF10E0A0E6B0E0E6EDF7E002C005900D
:100060000D92A636B107D9F720E0A6E6B0E001C0B0
:100070001D92AF38B207E1F7EED2ABC3C1CF8627EE
:10008000682F62956827062E669566956025062E70
:10009000669560256770082E892F66950794679589
:1000A000902D862706946795902586270895809140
:1000B000630090916400029731F483E090E09093A4
:1000C00064008093630008958091630090916400C0
:1000D0008230910541F08630910541F0019761F43D
:1000E00082E090E005C085E090E002C087E090E00B
:1000F00090936400809363000895809163009091D1
:1001000064008230910541F08630910529F0019715
:1001100049F482E090E002C085E090E090936200B4
:10012000809361000895809163009091640002972C
:1001300031F486E090E0909364008093630008952A
:100140008091630090916400029731F486E090E022
:1001500090936200809361000895FC01E459FF4F81
:100160008181208190E0922B0895EF92FF920F936E
:100170001F93CF93DF93EC017C0180E1E80EF11C2B
:1001800000E010E0CE01F9D2682FC80178DF8C01C1
:100190002196CE15DF05B1F7DF91CF911F910F9119
:1001A000FF90EF900895CF93DF93C0E1D0E0CE01B0
:1001B000E4D2682FCE014097ECD22196C032D1050F
:1001C000B1F7DF91CF910895CF93DF9391E0811143
:1001D00001C090E020916000220F292B2F70209306
:1001E000600080916A0090916B002F3009F5892B97
:1001F00009F443C0E0916800F0916900309759F02C
:10020000329685919491009711F0FC010995109216
:1002100069001092680010926B0010926A00809141
:100220008C0090918D00909367008093660025C0AC
:100230008F3FFFEF9F0729F0019690936B0080930B
:100240006A00CEE1D0E0FE01859194910097A9F07B
:1002500020916A0030916B008217930761F4D0936C
:100260006900C0936800FE013496859194910097CF
:1002700011F0FC0109952696E6CFDF91CF91089504
:1002800013BE8BE989BD80E189BF82E08ABD83E02E
:1002900083BF089510BE80E887BD8FEF8DBD1BBC66
:1002A00080E68CBDBC9A84E880BF089540E26CE68D
:1002B00070E081E26BC14CE06CE770E080E266C107
:1002C0009170906890937E0080937F00F4DF87E9BF
:1002D0009AE30197F1F700C0000082E190E03DDF72
:1002E0009F7790937E0080937F00E5CF80E190E040
:1002F00034DF916090937C0080937D00DCCF80E1BF
:1003000090E02BDF9E7F90937C0080937D00D3DF75
:10031000CDDF80E090E021DF96FDFACF08950F93C6
:100320001F93CF93DF93BC0183E090E040D2C0E005
:10033000D0E000E010E0CE0120D2682FC8019FDE9F
:100340008C012196CE30D105B1F7BC018EE090E052
:10035000DF91CF911F910F912AC2CF93DF9380E05D
:1003600090E003DF892BA9F080E190E0FEDE892B8D
:1003700019F4DF91CF9117CFC0E1D0E0FE01EA5D23
:10038000FF4F6491CE0105D22196C032D105B1F75D
:10039000F0CFDF91CF910895CF93DF9387B387603C
:1003A00087BB88B38C7F88BB89EF90E00197F1F71A
:1003B00000C00000C19A89EF90E00197F1F700C0FA
:1003C0000000BDD073DF8AE190E0C7DE90689093B3
:1003D0008600809387006FDF9FEB24ED81E09150D2
:1003E00020408040E1F700C0000082EE80937C0056
:1003F00081E080937D0084E190E0AFDEEC0181E05C
:1004000090E0BBD1882319F020E038E002C020E062
:1004100030E0C9018C2B9D2B90938000809381004C
:1004200080E090E0AAD1C82F82E090E0A6D19AE0C7
:10043000909382002C2F30E096E0220F331F9A9584
:10044000E1F73327837090E044E0880F991F4A95C5
:10045000E1F7282B392B209383001092840084E24B
:100460008093850028DF8BE69BE60197F1F700C0BB
:1004700000001CDF10927E0010927F001CDF83E0E2
:1004800090E083D11DDF86E190E067DEEC0185E03E
:1004900090E073D18F709E01207F282B30938200D3
:1004A00020938300DF91CF9106CF00DF80E090E0C2
:1004B00054DE8B3010F08A5001C081E0880F880F25
:1004C0008BBD08951F920F920FB60F9211242F9398
:1004D0003F934F935F936F937F938F939F93AF93CC
:1004E000BF93EF93FF9380918C0090918D000196C4
:1004F00090938D0080938C0086B3887065DE809128
:100500008C0090918D008F719927892B39F48091FF
:10051000610090916200019709F4C7DFFF91EF91AC
:10052000BF91AF919F918F917F916F915F914F910B
:100530003F912F910F900FBE0F901F901895C09A6A
:10054000C29ABA9AB89A8FEF8FB98AE28DB980EFC2
:100550008EB9089580918E0008958EB98BE20000C7
:100560008DB9B29BFECF00008DB9769BF8CF00000D
:100570008FB19FEF9FB9B89A0895C098C29AB29B65
:10058000FECF0000C09A000081E00895DF92EF9254
:10059000FF920F931F93CF93DF93E82EEB01F42E7E
:1005A00081E080938E00E0FC03C083E080938E00A6
:1005B000C29AB29BFECF0000C0980000C298C09AB9
:1005C000DD24DA9490918E00937041F1C29880916D
:1005D0008E0080FF03C0EFB8F39403C088818FB909
:1005E000219680EFBADFB8988EEFB7DF80FF0FC09B
:1005F00090918E00892F817090FF05C086E08093D6
:100600008E0080E020C095E090938E001CC0809109
:100610008E008E7F80938E008E010FC0B8988E0161
:100620000F5F1F4F80EF99DF888381E0F81202C0CF
:10063000DFB801C01FB88EEF90DFFA9411F0E80127
:10064000C1CF9BDF81E0DF91CF911F910F91FF9090
:10065000EF90DF900895C39A13DE1CDE7EDE9CDEF1
:10066000789485B7877E85BF02E010E0C1E0D0E0D6
:1006700054E0E52EF12C85B7806285BF889585B75B
:100680008F7D85BFBFB6F894809163009091640020
:1006900084309105A1F040F40397A1F527DEF09294
:1006A0006400E09263002EC085309105A1F00797A9
:1006B00049F579DD83E090E068D002DE1AC0F6DD0E
:1006C00080E090E04ADD96FF1DC019DE10936400C3
:1006D0000093630017C0EADD82E090E03EDD937096
:1006E0006C0183E090E051D0C816D90611F0C60124
:1006F00016DED0936400C0936300D0936200C09371
:100700006100D3DE80916100909162008530910597
:10071000A1F08630910549F0029789F480918C0010
:1007200090918D0085FF07C008C080918C0090914A
:100730008D0084FD02C080E001C08DB58BBD80912D
:100740006300909164000197B1F080918C009091CA
:100750008D002091660030916700821B930B893ECB
:10076000934048F0D0936400C0936300D09362003C
:10077000C09361009ADEBFBE7ECFE199FECF1FBA63
:100780008EBBE09A99278DB30895A8E1B0E042E0CE
:1007900013C0262FE199FECF1CBA1FBA8EBB2DBB0A
:1007A0000FB6F894E29AE19A0FBE01960895F1DF30
:1007B000272FF0CFDC01862FE82FE199FECF1FBA5B
:1007C00005C0EEBBE09AE3950DB20D924150C8F71B
:0607D0000895F894FFCF2C
:0607D600FF01000100001C
:00000001FF
